{
  "contractName": "SimpleStorage",
  "abi": [
    {
      "inputs": [],
      "stateMutability": "nonpayable",
      "type": "constructor"
    },
    {
      "anonymous": false,
      "inputs": [
        {
          "indexed": true,
          "internalType": "address",
          "name": "_owner",
          "type": "address"
        },
        {
          "indexed": false,
          "internalType": "bool",
          "name": "_stop",
          "type": "bool"
        }
      ],
      "name": "LogEmergencyStop",
      "type": "event"
    },
    {
      "anonymous": false,
      "inputs": [
        {
          "indexed": true,
          "internalType": "address",
          "name": "_owner",
          "type": "address"
        },
        {
          "indexed": false,
          "internalType": "string",
          "name": "_ipfsHash",
          "type": "string"
        },
        {
          "indexed": false,
          "internalType": "string",
          "name": "_title",
          "type": "string"
        },
        {
          "indexed": false,
          "internalType": "string",
          "name": "_description",
          "type": "string"
        },
        {
          "indexed": false,
          "internalType": "string",
          "name": "_tags",
          "type": "string"
        },
        {
          "indexed": false,
          "internalType": "uint256",
          "name": "_uploadedOn",
          "type": "uint256"
        }
      ],
      "name": "LogImageUploaded",
      "type": "event"
    },
    {
      "inputs": [
        {
          "internalType": "address",
          "name": "",
          "type": "address"
        }
      ],
      "name": "balanceOf",
      "outputs": [
        {
          "internalType": "uint256",
          "name": "",
          "type": "uint256"
        }
      ],
      "stateMutability": "view",
      "type": "function",
      "constant": true
    },
    {
      "inputs": [
        {
          "internalType": "address",
          "name": "",
          "type": "address"
        },
        {
          "internalType": "uint256",
          "name": "",
          "type": "uint256"
        }
      ],
      "name": "ownerToImages",
      "outputs": [
        {
          "internalType": "string",
          "name": "ipfsHash",
          "type": "string"
        },
        {
          "internalType": "string",
          "name": "title",
          "type": "string"
        },
        {
          "internalType": "string",
          "name": "description",
          "type": "string"
        },
        {
          "internalType": "string",
          "name": "tags",
          "type": "string"
        },
        {
          "internalType": "uint256",
          "name": "uploadedOn",
          "type": "uint256"
        }
      ],
      "stateMutability": "view",
      "type": "function",
      "constant": true
    },
    {
      "inputs": [
        {
          "internalType": "uint256",
          "name": "a",
          "type": "uint256"
        },
        {
          "internalType": "uint256",
          "name": "b",
          "type": "uint256"
        }
      ],
      "name": "exec",
      "outputs": [
        {
          "internalType": "uint256",
          "name": "",
          "type": "uint256"
        }
      ],
      "stateMutability": "pure",
      "type": "function",
      "constant": true
    },
    {
      "inputs": [
        {
          "internalType": "address",
          "name": "_to",
          "type": "address"
        },
        {
          "internalType": "uint256",
          "name": "_value",
          "type": "uint256"
        }
      ],
      "name": "transfer",
      "outputs": [],
      "stateMutability": "nonpayable",
      "type": "function"
    },
    {
      "inputs": [],
      "name": "withdrawBalance",
      "outputs": [],
      "stateMutability": "nonpayable",
      "type": "function"
    },
    {
      "inputs": [
        {
          "internalType": "string",
          "name": "_ipfsHash",
          "type": "string"
        },
        {
          "internalType": "string",
          "name": "_title",
          "type": "string"
        },
        {
          "internalType": "string",
          "name": "_description",
          "type": "string"
        },
        {
          "internalType": "string",
          "name": "_tags",
          "type": "string"
        }
      ],
      "name": "uploadImage",
      "outputs": [
        {
          "internalType": "bool",
          "name": "_success",
          "type": "bool"
        }
      ],
      "stateMutability": "nonpayable",
      "type": "function"
    },
    {
      "inputs": [
        {
          "internalType": "bool",
          "name": "_stop",
          "type": "bool"
        }
      ],
      "name": "emergencyStop",
      "outputs": [],
      "stateMutability": "nonpayable",
      "type": "function"
    }
  ],
  "bytecode": "0x60806040526000600460006101000a81548160ff02191690831515021790555034801561002b57600080fd5b50336000806101000a81548173ffffffffffffffffffffffffffffffffffffffff021916908373ffffffffffffffffffffffffffffffffffffffff16021790555061123e8061007b6000396000f3fe608060405234801561001057600080fd5b506004361061007d5760003560e01c806370a082311161005b57806370a08231146102ce5780639875783214610326578063a9059cbb14610372578063fdfc8873146103c05761007d565b80630ac62e021461008257806350e25c72146100b25780635fd8c710146102c4575b600080fd5b6100b06004803603602081101561009857600080fd5b81019080803515159060200190929190505050610658565b005b6100fe600480360360408110156100c857600080fd5b81019080803573ffffffffffffffffffffffffffffffffffffffff1690602001909291908035906020019092919050505061078d565b604051808060200180602001806020018060200186815260200185810385528a818151815260200191508051906020019080838360005b83811015610150578082015181840152602081019050610135565b50505050905090810190601f16801561017d5780820380516001836020036101000a031916815260200191505b50858103845289818151815260200191508051906020019080838360005b838110156101b657808201518184015260208101905061019b565b50505050905090810190601f1680156101e35780820380516001836020036101000a031916815260200191505b50858103835288818151815260200191508051906020019080838360005b8381101561021c578082015181840152602081019050610201565b50505050905090810190601f1680156102495780820380516001836020036101000a031916815260200191505b50858103825287818151815260200191508051906020019080838360005b83811015610282578082015181840152602081019050610267565b50505050905090810190601f1680156102af5780820380516001836020036101000a031916815260200191505b50995050505050505050505060405180910390f35b6102cc610a3d565b005b610310600480360360208110156102e457600080fd5b81019080803573ffffffffffffffffffffffffffffffffffffffff169060200190929190505050610b3d565b6040518082815260200191505060405180910390f35b61035c6004803603604081101561033c57600080fd5b810190808035906020019092919080359060200190929190505050610b55565b6040518082815260200191505060405180910390f35b6103be6004803603604081101561038857600080fd5b81019080803573ffffffffffffffffffffffffffffffffffffffff16906020019092919080359060200190929190505050610b72565b005b61063e600480360360808110156103d657600080fd5b81019080803590602001906401000000008111156103f357600080fd5b82018360208201111561040557600080fd5b8035906020019184600183028401116401000000008311171561042757600080fd5b91908080601f016020809104026020016040519081016040528093929190818152602001838380828437600081840152601f19601f8201169050808301925050505050505091929192908035906020019064010000000081111561048a57600080fd5b82018360208201111561049c57600080fd5b803590602001918460018302840111640100000000831117156104be57600080fd5b91908080601f016020809104026020016040519081016040528093929190818152602001838380828437600081840152601f19601f8201169050808301925050505050505091929192908035906020019064010000000081111561052157600080fd5b82018360208201111561053357600080fd5b8035906020019184600183028401116401000000008311171561055557600080fd5b91908080601f016020809104026020016040519081016040528093929190818152602001838380828437600081840152601f19601f820116905080830192505050505050509192919290803590602001906401000000008111156105b857600080fd5b8201836020820111156105ca57600080fd5b803590602001918460018302840111640100000000831117156105ec57600080fd5b91908080601f016020809104026020016040519081016040528093929190818152602001838380828437600081840152601f19601f820116905080830192505050505050509192919290505050610ce8565b604051808215151515815260200191505060405180910390f35b6000809054906101000a900473ffffffffffffffffffffffffffffffffffffffff1673ffffffffffffffffffffffffffffffffffffffff163373ffffffffffffffffffffffffffffffffffffffff16146106fd576040517f08c379a00000000000000000000000000000000000000000000000000000000081526004018080602001828103825260228152602001806111e76022913960400191505060405180910390fd5b80600460006101000a81548160ff0219169083151502179055506000809054906101000a900473ffffffffffffffffffffffffffffffffffffffff1673ffffffffffffffffffffffffffffffffffffffff167f1fd8a6424996fcb73e71380685f86d34feb317dc811892630fd77cc70046e06a82604051808215151515815260200191505060405180910390a250565b600360205281600052604060002081815481106107a657fe5b906000526020600020906005020160009150915050806000018054600181600116156101000203166002900480601f0160208091040260200160405190810160405280929190818152602001828054600181600116156101000203166002900480156108535780601f1061082857610100808354040283529160200191610853565b820191906000526020600020905b81548152906001019060200180831161083657829003601f168201915b505050505090806001018054600181600116156101000203166002900480601f0160208091040260200160405190810160405280929190818152602001828054600181600116156101000203166002900480156108f15780601f106108c6576101008083540402835291602001916108f1565b820191906000526020600020905b8154815290600101906020018083116108d457829003601f168201915b505050505090806002018054600181600116156101000203166002900480601f01602080910402602001604051908101604052809291908181526020018280546001816001161561010002031660029004801561098f5780601f106109645761010080835404028352916020019161098f565b820191906000526020600020905b81548152906001019060200180831161097257829003601f168201915b505050505090806003018054600181600116156101000203166002900480601f016020809104026020016040519081016040528092919081815260200182805460018160011615610100020316600290048015610a2d5780601f10610a0257610100808354040283529160200191610a2d565b820191906000526020600020905b815481529060010190602001808311610a1057829003601f168201915b5050505050908060040154905085565b6000600260003373ffffffffffffffffffffffffffffffffffffffff1673ffffffffffffffffffffffffffffffffffffffff1681526020019081526020016000205490506000600260003373ffffffffffffffffffffffffffffffffffffffff1673ffffffffffffffffffffffffffffffffffffffff1681526020019081526020016000208190555060003373ffffffffffffffffffffffffffffffffffffffff168260405180600001905060006040518083038185875af1925050503d8060008114610b26576040519150601f19603f3d011682016040523d82523d6000602084013e610b2b565b606091505b5050905080610b3957600080fd5b5050565b60016020528060005260406000206000915090505481565b6000610b6a828461108a90919063ffffffff16565b905092915050565b80600160003373ffffffffffffffffffffffffffffffffffffffff1673ffffffffffffffffffffffffffffffffffffffff1681526020019081526020016000205410158015610c415750600160008373ffffffffffffffffffffffffffffffffffffffff1673ffffffffffffffffffffffffffffffffffffffff1681526020019081526020016000205481600160008573ffffffffffffffffffffffffffffffffffffffff1673ffffffffffffffffffffffffffffffffffffffff168152602001908152602001600020540110155b610c4a57600080fd5b80600160003373ffffffffffffffffffffffffffffffffffffffff1673ffffffffffffffffffffffffffffffffffffffff1681526020019081526020016000206000828254039250508190555080600160008473ffffffffffffffffffffffffffffffffffffffff1673ffffffffffffffffffffffffffffffffffffffff168152602001908152602001600020600082825401925050819055505050565b6000600460009054906101000a900460ff1615610d0457600080fd5b602e855114610d1257600080fd5b60008451118015610d265750610100845111155b610d2f57600080fd5b610400835110610d3e57600080fd5b60008251118015610d525750610100825111155b610d5b57600080fd5b6000429050610d68611112565b6040518060a00160405280888152602001878152602001868152602001858152602001838152509050600360003373ffffffffffffffffffffffffffffffffffffffff1673ffffffffffffffffffffffffffffffffffffffff1681526020019081526020016000208190806001815401808255809150506001900390600052602060002090600502016000909190919091506000820151816000019080519060200190610e16929190611141565b506020820151816001019080519060200190610e33929190611141565b506040820151816002019080519060200190610e50929190611141565b506060820151816003019080519060200190610e6d929190611141565b506080820151816004015550503373ffffffffffffffffffffffffffffffffffffffff167f4753b7d7d7b6713cb600756bd11cc8bf932ece70274edfbc01931256caaa63be8888888887604051808060200180602001806020018060200186815260200185810385528a818151815260200191508051906020019080838360005b83811015610f09578082015181840152602081019050610eee565b50505050905090810190601f168015610f365780820380516001836020036101000a031916815260200191505b50858103845289818151815260200191508051906020019080838360005b83811015610f6f578082015181840152602081019050610f54565b50505050905090810190601f168015610f9c5780820380516001836020036101000a031916815260200191505b50858103835288818151815260200191508051906020019080838360005b83811015610fd5578082015181840152602081019050610fba565b50505050905090810190601f1680156110025780820380516001836020036101000a031916815260200191505b50858103825287818151815260200191508051906020019080838360005b8381101561103b578082015181840152602081019050611020565b50505050905090810190601f1680156110685780820380516001836020036101000a031916815260200191505b50995050505050505050505060405180910390a2600192505050949350505050565b600080828401905083811015611108576040517f08c379a000000000000000000000000000000000000000000000000000000000815260040180806020018281038252601b8152602001807f536166654d6174683a206164646974696f6e206f766572666c6f77000000000081525060200191505060405180910390fd5b8091505092915050565b6040518060a0016040528060608152602001606081526020016060815260200160608152602001600081525090565b828054600181600116156101000203166002900490600052602060002090601f016020900481019282601f1061118257805160ff19168380011785556111b0565b828001600101855582156111b0579182015b828111156111af578251825591602001919060010190611194565b5b5090506111bd91906111c1565b5090565b6111e391905b808211156111df5760008160009055506001016111c7565b5090565b9056fe4f6e6c79206f776e65722063616e2063616c6c20746869732066756e6374696f6e2ea26469706673582212201a023a41cafd61011485c745c7a222934be2eabda616fce07ff8141f40a8f9c264736f6c63430006000033",
  "source": "// SPDX-License-Identifier: MIT\npragma solidity >=0.4.21 <0.7.0;\n\nimport \"@openzeppelin/contracts/math/SafeMath.sol\";\nimport \"@openzeppelin/contracts/token/ERC20/ERC20.sol\";\n\n\ncontract SimpleStorage {\n\n  address payable owner;\n  constructor() public {\n      owner = msg.sender; \n     }\n\n     modifier onlyOwner {\n        require(\n            msg.sender == owner,\n            \"Only owner can call this function.\"\n        );\n        _;\n    }\n\n  using SafeMath for uint;\n    function exec(uint a, uint b) public pure returns (uint){\n        return a.add(b);\n    }\n \n \n    /** \n    * @title Represents a single image which is owned by someone. \n    */\n    struct Image {\n        string ipfsHash;        // IPFS hash\n        string title;           // Image title\n        string description;     // Image description\n        string tags;            // Image tags in comma separated format\n        uint256 uploadedOn;     // Uploaded timestamp\n    }\n\n\n  //security features to protect \n\n  mapping (address => uint256) public balanceOf;\n\n  function transfer(address _to, uint256 _value) public {\n    /* Check if sender has balance and for overflows */\n    require(balanceOf[msg.sender] >= _value && balanceOf[_to] + _value >= balanceOf[_to]);\n\n    /* Add and subtract new balances */\n    balanceOf[msg.sender] -= _value;\n    balanceOf[_to] += _value;\n}\n\n     // Reentrancy \n    mapping (address => uint) private userBalances;\n\n    function withdrawBalance() public {\n    uint amountToWithdraw = userBalances[msg.sender];\n    userBalances[msg.sender] = 0;\n    (bool success, ) = msg.sender.call.value(amountToWithdraw)(\"\"); // The user's balance is already 0, so future invocations won't withdraw anything\n    require(success);\n    }\n\n\n      // Maps owner to their images\n    mapping (address  => Image[]) public ownerToImages;\n\n\n    //circuit breaker\n    bool private stopped = false;\n\n\n    event LogImageUploaded(\n        address indexed _owner, \n        string _ipfsHash, \n        string _title, \n        string _description, \n        string _tags,\n        uint256 _uploadedOn\n    );\n\n\n    event LogEmergencyStop(\n        address indexed _owner, \n        bool _stop\n    );\n\n    /**\n    * @dev Prevents execution in the case of an emergency\n    */\n    modifier stopInEmergency { \n        require(!stopped); \n        _;\n    }\n\n\n\n    /** \n        * @notice associate an image entry with the owner i.e. sender address\n        * @dev Controlled by circuit breaker\n        * @param _ipfsHash The IPFS hash\n        * @param _title The image title\n        * @param _description The image description\n        * @param _tags The image tag(s)\n        */\n    function uploadImage(\n        string memory _ipfsHash, \n        string memory _title, \n        string memory _description, \n        string memory _tags\n    ) public stopInEmergency returns (bool _success) {\n            \n        require(bytes(_ipfsHash).length == 46);\n        require(bytes(_title).length > 0 && bytes(_title).length <= 256);\n        require(bytes(_description).length < 1024);\n        require(bytes(_tags).length > 0 && bytes(_tags).length <= 256);\n\n        uint256 uploadedOn = now;\n        Image memory image = Image(\n            _ipfsHash,\n            _title,\n            _description,\n            _tags,\n            uploadedOn\n        );\n\n        ownerToImages[msg.sender].push(image);\n\n        emit LogImageUploaded(\n            msg.sender,\n            _ipfsHash,\n            _title,\n            _description,\n            _tags,\n            uploadedOn\n        );\n\n        _success = true;\n    }\n\n\n    /** \n    * @notice Returns the number of images associated with the given address\n    * @dev Controlled by circuit breaker\n    * @param _owner The owner address\n    * @return The number of images associated with a given address\n    */\n    // function getImageCount(address  _owner) \n    //     public view \n    //     stopInEmergency \n    //     returns (uint256) \n    // {\n    //     require( _owner != 0x0);\n    //     return ownerToImages[_owner].length;\n    // }\n\n\n    /** \n    * @notice Returns the image at index in the ownership array\n    * @dev Controlled by circuit breaker\n    * @param _owner The owner address\n    * @param _index The index of the image to return\n    * @return _ipfsHash The IPFS hash\n    * @return _title The image title\n    * @return _description The image description\n    * @return _tags image Then image tags\n    * @return _uploadedOn The uploaded timestamp\n    */ \n    // function getImage(address _owner, uint8 _index) \n    //     public stopInEmergency view returns (\n    //     string memory _ipfsHash, \n    //     string memory _title, \n    //     string memory _description, \n    //     string memory _tags,\n    //     uint256 _uploadedOn\n    // ) {\n\n    //     require(_owner != 0x0);\n    //     require(_index >= 0 && _index <= 2**8 - 1);\n    //     require(ownerToImages[_owner].length > 0);\n\n    //     Image storage image = ownerToImages[_owner][_index];\n        \n    //     return (\n    //         image.ipfsHash, \n    //         image.title, \n    //         image.description, \n    //         image.tags, \n    //         image.uploadedOn\n    //     );\n    // }\n\n\n\n\n     /**\n    * @notice Pause the contract. \n    * It stops execution if certain conditions are met and can be useful \n    * when new errors are discovered. \n    * @param _stop Switch the circuit breaker on or off\n    */\n\n    function emergencyStop(bool _stop) onlyOwner public {\n        stopped = _stop;\n        emit LogEmergencyStop(owner, _stop);\n    }\n}\n",
  "sourcePath": "/home/jhanagustave/Blockchain/projectBlockchain/contracts/SimpleStorage.sol",
  "compiler": {
    "name": "solc",
    "version": "0.6.0+commit.26b70077.Emscripten.clang"
  },
  "schemaVersion": "3.3.3",
  "updatedAt": "2020-12-30T09:17:08.060Z",
  "networkType": "ethereum",
  "devdoc": {
    "methods": {
      "emergencyStop(bool)": {
        "params": {
          "_stop": "Switch the circuit breaker on or off"
        }
      },
      "uploadImage(string,string,string,string)": {
        "details": "Controlled by circuit breaker",
        "params": {
          "_description": "The image description",
          "_ipfsHash": "The IPFS hash",
          "_tags": "The image tag(s)",
          "_title": "The image title"
        }
      }
    }
  },
  "userdoc": {
    "methods": {
      "emergencyStop(bool)": {
        "notice": "Pause the contract.  It stops execution if certain conditions are met and can be useful  when new errors are discovered. "
      },
      "uploadImage(string,string,string,string)": {
        "notice": "associate an image entry with the owner i.e. sender address"
      }
    }
  }
}