{
  "contractName": "SimpleStorage",
  "abi": [
    {
      "inputs": [],
      "stateMutability": "nonpayable",
      "type": "constructor"
    },
    {
      "anonymous": false,
      "inputs": [
        {
          "indexed": true,
          "internalType": "address",
          "name": "_owner",
          "type": "address"
        },
        {
          "indexed": false,
          "internalType": "bool",
          "name": "_stop",
          "type": "bool"
        }
      ],
      "name": "LogEmergencyStop",
      "type": "event"
    },
    {
      "inputs": [
        {
          "internalType": "address",
          "name": "",
          "type": "address"
        }
      ],
      "name": "balanceOf",
      "outputs": [
        {
          "internalType": "uint256",
          "name": "",
          "type": "uint256"
        }
      ],
      "stateMutability": "view",
      "type": "function",
      "constant": true
    },
    {
      "inputs": [
        {
          "internalType": "string",
          "name": "hash",
          "type": "string"
        },
        {
          "internalType": "string",
          "name": "ipfs",
          "type": "string"
        }
      ],
      "name": "uploadImage",
      "outputs": [],
      "stateMutability": "nonpayable",
      "type": "function"
    },
    {
      "inputs": [
        {
          "internalType": "string",
          "name": "x",
          "type": "string"
        }
      ],
      "name": "set",
      "outputs": [],
      "stateMutability": "nonpayable",
      "type": "function"
    },
    {
      "inputs": [],
      "name": "get",
      "outputs": [
        {
          "internalType": "string",
          "name": "",
          "type": "string"
        }
      ],
      "stateMutability": "view",
      "type": "function",
      "constant": true
    },
    {
      "inputs": [
        {
          "internalType": "string",
          "name": "_name",
          "type": "string"
        }
      ],
      "name": "changeName",
      "outputs": [],
      "stateMutability": "nonpayable",
      "type": "function"
    },
    {
      "inputs": [],
      "name": "getOwner",
      "outputs": [
        {
          "internalType": "address",
          "name": "",
          "type": "address"
        }
      ],
      "stateMutability": "view",
      "type": "function",
      "constant": true
    },
    {
      "inputs": [],
      "name": "getBalance",
      "outputs": [
        {
          "internalType": "uint256",
          "name": "",
          "type": "uint256"
        }
      ],
      "stateMutability": "view",
      "type": "function",
      "constant": true
    },
    {
      "inputs": [
        {
          "internalType": "uint256",
          "name": "a",
          "type": "uint256"
        },
        {
          "internalType": "uint256",
          "name": "b",
          "type": "uint256"
        }
      ],
      "name": "exec",
      "outputs": [
        {
          "internalType": "uint256",
          "name": "",
          "type": "uint256"
        }
      ],
      "stateMutability": "pure",
      "type": "function",
      "constant": true
    },
    {
      "inputs": [
        {
          "internalType": "address",
          "name": "_to",
          "type": "address"
        },
        {
          "internalType": "uint256",
          "name": "_value",
          "type": "uint256"
        }
      ],
      "name": "transfer",
      "outputs": [],
      "stateMutability": "nonpayable",
      "type": "function"
    },
    {
      "inputs": [],
      "name": "withdrawBalance",
      "outputs": [],
      "stateMutability": "nonpayable",
      "type": "function"
    },
    {
      "inputs": [
        {
          "internalType": "bool",
          "name": "_stop",
          "type": "bool"
        }
      ],
      "name": "emergencyStop",
      "outputs": [],
      "stateMutability": "nonpayable",
      "type": "function"
    }
  ],
  "bytecode": "0x60806040526000600660006101000a81548160ff02191690831515021790555034801561002b57600080fd5b506040518060400160405280600781526020017f6d79206e616d6500000000000000000000000000000000000000000000000000815250600190805190602001906100779291906100be565b5033600360006101000a81548173ffffffffffffffffffffffffffffffffffffffff021916908373ffffffffffffffffffffffffffffffffffffffff160217905550610163565b828054600181600116156101000203166002900490600052602060002090601f016020900481019282601f106100ff57805160ff191683800117855561012d565b8280016001018555821561012d579182015b8281111561012c578251825591602001919060010190610111565b5b50905061013a919061013e565b5090565b61016091905b8082111561015c576000816000905550600101610144565b5090565b90565b610e18806101726000396000f3fe608060405234801561001057600080fd5b50600436106100a95760003560e01c80636d4ce63c116100715780636d4ce63c1461027c57806370a08231146102ff578063893d20e81461035757806398757832146103a1578063a9059cbb146103ed578063a91b83141461043b576100a9565b80630ac62e02146100ae57806312065fe0146100de5780634ed3885e146100fc5780635353a2d8146101b75780635fd8c71014610272575b600080fd5b6100dc600480360360208110156100c457600080fd5b8101908080351515906020019092919050505061058d565b005b6100e66106c4565b6040518082815260200191505060405180910390f35b6101b56004803603602081101561011257600080fd5b810190808035906020019064010000000081111561012f57600080fd5b82018360208201111561014157600080fd5b8035906020019184600183028401116401000000008311171561016357600080fd5b91908080601f016020809104026020016040519081016040528093929190818152602001838380828437600081840152601f19601f820116905080830192505050505050509192919290505050610705565b005b610270600480360360208110156101cd57600080fd5b81019080803590602001906401000000008111156101ea57600080fd5b8201836020820111156101fc57600080fd5b8035906020019184600183028401116401000000008311171561021e57600080fd5b91908080601f016020809104026020016040519081016040528093929190818152602001838380828437600081840152601f19601f82011690508083019250505050505050919291929050505061071f565b005b61027a6107df565b005b6102846108df565b6040518080602001828103825283818151815260200191508051906020019080838360005b838110156102c45780820151818401526020810190506102a9565b50505050905090810190601f1680156102f15780820380516001836020036101000a031916815260200191505b509250505060405180910390f35b6103416004803603602081101561031557600080fd5b81019080803573ffffffffffffffffffffffffffffffffffffffff169060200190929190505050610981565b6040518082815260200191505060405180910390f35b61035f610999565b604051808273ffffffffffffffffffffffffffffffffffffffff1673ffffffffffffffffffffffffffffffffffffffff16815260200191505060405180910390f35b6103d7600480360360408110156103b757600080fd5b8101908080359060200190929190803590602001909291905050506109c3565b6040518082815260200191505060405180910390f35b6104396004803603604081101561040357600080fd5b81019080803573ffffffffffffffffffffffffffffffffffffffff169060200190929190803590602001909291905050506109e0565b005b61058b6004803603604081101561045157600080fd5b810190808035906020019064010000000081111561046e57600080fd5b82018360208201111561048057600080fd5b803590602001918460018302840111640100000000831117156104a257600080fd5b91908080601f016020809104026020016040519081016040528093929190818152602001838380828437600081840152601f19601f8201169050808301925050505050505091929192908035906020019064010000000081111561050557600080fd5b82018360208201111561051757600080fd5b8035906020019184600183028401116401000000008311171561053957600080fd5b91908080601f016020809104026020016040519081016040528093929190818152602001838380828437600081840152601f19601f820116905080830192505050505050509192919290505050610b56565b005b600360009054906101000a900473ffffffffffffffffffffffffffffffffffffffff1673ffffffffffffffffffffffffffffffffffffffff163373ffffffffffffffffffffffffffffffffffffffff1614610633576040517f08c379a0000000000000000000000000000000000000000000000000000000008152600401808060200182810382526022815260200180610dc16022913960400191505060405180910390fd5b80600660006101000a81548160ff021916908315150217905550600360009054906101000a900473ffffffffffffffffffffffffffffffffffffffff1673ffffffffffffffffffffffffffffffffffffffff167f1fd8a6424996fcb73e71380685f86d34feb317dc811892630fd77cc70046e06a82604051808215151515815260200191505060405180910390a250565b6000600360009054906101000a900473ffffffffffffffffffffffffffffffffffffffff1673ffffffffffffffffffffffffffffffffffffffff1631905090565b806000908051906020019061071b929190610c9b565b5050565b600360009054906101000a900473ffffffffffffffffffffffffffffffffffffffff1673ffffffffffffffffffffffffffffffffffffffff163373ffffffffffffffffffffffffffffffffffffffff16146107c5576040517f08c379a0000000000000000000000000000000000000000000000000000000008152600401808060200182810382526022815260200180610dc16022913960400191505060405180910390fd5b80600190805190602001906107db929190610c9b565b5050565b6000600560003373ffffffffffffffffffffffffffffffffffffffff1673ffffffffffffffffffffffffffffffffffffffff1681526020019081526020016000205490506000600560003373ffffffffffffffffffffffffffffffffffffffff1673ffffffffffffffffffffffffffffffffffffffff1681526020019081526020016000208190555060003373ffffffffffffffffffffffffffffffffffffffff168260405180600001905060006040518083038185875af1925050503d80600081146108c8576040519150601f19603f3d011682016040523d82523d6000602084013e6108cd565b606091505b50509050806108db57600080fd5b5050565b606060008054600181600116156101000203166002900480601f0160208091040260200160405190810160405280929190818152602001828054600181600116156101000203166002900480156109775780601f1061094c57610100808354040283529160200191610977565b820191906000526020600020905b81548152906001019060200180831161095a57829003601f168201915b5050505050905090565b60046020528060005260406000206000915090505481565b6000600360009054906101000a900473ffffffffffffffffffffffffffffffffffffffff16905090565b60006109d88284610c1390919063ffffffff16565b905092915050565b80600460003373ffffffffffffffffffffffffffffffffffffffff1673ffffffffffffffffffffffffffffffffffffffff1681526020019081526020016000205410158015610aaf5750600460008373ffffffffffffffffffffffffffffffffffffffff1673ffffffffffffffffffffffffffffffffffffffff1681526020019081526020016000205481600460008573ffffffffffffffffffffffffffffffffffffffff1673ffffffffffffffffffffffffffffffffffffffff168152602001908152602001600020540110155b610ab857600080fd5b80600460003373ffffffffffffffffffffffffffffffffffffffff1673ffffffffffffffffffffffffffffffffffffffff1681526020019081526020016000206000828254039250508190555080600460008473ffffffffffffffffffffffffffffffffffffffff1673ffffffffffffffffffffffffffffffffffffffff168152602001908152602001600020600082825401925050819055505050565b600260003373ffffffffffffffffffffffffffffffffffffffff1673ffffffffffffffffffffffffffffffffffffffff16815260200190815260200160002060405180604001604052808481526020018381525090806001815401808255809150506001900390600052602060002090600202016000909190919091506000820151816000019080519060200190610bef929190610d1b565b506020820151816001019080519060200190610c0c929190610d1b565b5050505050565b600080828401905083811015610c91576040517f08c379a000000000000000000000000000000000000000000000000000000000815260040180806020018281038252601b8152602001807f536166654d6174683a206164646974696f6e206f766572666c6f77000000000081525060200191505060405180910390fd5b8091505092915050565b828054600181600116156101000203166002900490600052602060002090601f016020900481019282601f10610cdc57805160ff1916838001178555610d0a565b82800160010185558215610d0a579182015b82811115610d09578251825591602001919060010190610cee565b5b509050610d179190610d9b565b5090565b828054600181600116156101000203166002900490600052602060002090601f016020900481019282601f10610d5c57805160ff1916838001178555610d8a565b82800160010185558215610d8a579182015b82811115610d89578251825591602001919060010190610d6e565b5b509050610d979190610d9b565b5090565b610dbd91905b80821115610db9576000816000905550600101610da1565b5090565b9056fe4f6e6c79206f776e65722063616e2063616c6c20746869732066756e6374696f6e2ea2646970667358221220870fdac153056af2ea26faf46d789a8a8b928ab3940a582749030568abb2d6d364736f6c63430006000033",
  "source": "// SPDX-License-Identifier: MIT\npragma solidity >=0.4.21 <0.7.0;\n\nimport \"@openzeppelin/contracts/math/SafeMath.sol\";\nimport \"@openzeppelin/contracts/token/ERC20/ERC20.sol\";\n\n\ncontract SimpleStorage {\n\n    string ipfsHash;\n     string name;\n\n    mapping(address=>Image[]) private images;\n    struct Image{\n        string name;\n        string imageHash;\n       }\n\n       // Defining a constructor    \n        constructor() public{   \n        name = 'my name'; \n        owner=msg.sender; \n    } \n\n   function uploadImage(string memory hash, string memory ipfs) public{\n       images[msg.sender].push(Image(hash,ipfs)); //\n   }\n\n    function set(string memory x) public {\n        ipfsHash = x;\n    }\n\n    function get() public view returns (string memory) {\n        return ipfsHash;\n    }\n\n    function changeName(string memory _name) public onlyOwner {\n    name = _name;\n  }\n\n    // Private state variable \n    address payable owner;  \n  \n    // Function to get  \n    // address of owner \n    function getOwner( \n    ) public view returns (address) {     \n        return owner; \n    } \n  \n    // Function to return  \n    // current balance of owner \n    function getBalance( \n    ) public view returns(uint256){ \n        return owner.balance; \n    } \n\n    modifier onlyOwner {\n        require(\n            msg.sender == owner,\n            \"Only owner can call this function.\"\n        );\n        _;\n    }\n\n\n\n    \n\n\n//Using SafeMath\n  using SafeMath for uint;\n    function exec(uint a, uint b) public pure returns (uint){\n        return a.add(b);\n    }\n \n \n  //security features to protect \n\n  mapping (address => uint256) public balanceOf;\n\n  function transfer(address _to, uint256 _value) public {\n    /* Check if sender has balance and for overflows */\n    require(balanceOf[msg.sender] >= _value && balanceOf[_to] + _value >= balanceOf[_to]);\n\n    /* Add and subtract new balances */\n    balanceOf[msg.sender] -= _value;\n    balanceOf[_to] += _value;\n}\n\n     // Reentrancy \n    mapping (address => uint) private userBalances;\n\n    function withdrawBalance() public {\n    uint amountToWithdraw = userBalances[msg.sender];\n    userBalances[msg.sender] = 0;\n    (bool success, ) = msg.sender.call.value(amountToWithdraw)(\"\"); // The user's balance is already 0, so future invocations won't withdraw anything\n    require(success);\n    }\n\n\n    // Used by Circuit Breaker pattern to switch contract on / off\n    bool private stopped = false;\n\n    /**\n    * @dev Indicates that the owner has performed an emergency stop\n    * @param _owner The owner of the image\n    * @param _stop Indicates whether to stop or resume\n    */\n    event LogEmergencyStop(\n        address indexed _owner, \n        bool _stop\n    );\n\n    /**\n    * @dev Prevents execution in the case of an emergency\n    */\n    modifier stopInEmergency { \n        require(!stopped); \n        _;\n    }\n\n\n     /**\n    * @notice Pause the contract. \n    * It stops execution if certain conditions are met and can be useful \n    * when new errors are discovered. \n    * @param _stop Switch the circuit breaker on or off\n    */\n\n    function emergencyStop(bool _stop) onlyOwner public {\n        stopped = _stop;\n        emit LogEmergencyStop(owner, _stop);\n    }\n}\n",
  "sourcePath": "/home/jhanagustave/Desktop/projectBlockchain/contracts/SimpleStorage.sol",
  "compiler": {
    "name": "solc",
    "version": "0.6.0+commit.26b70077.Emscripten.clang"
  },
  "schemaVersion": "3.3.3",
  "updatedAt": "2021-01-01T05:00:21.011Z",
  "networkType": "ethereum",
  "devdoc": {
    "methods": {
      "emergencyStop(bool)": {
        "params": {
          "_stop": "Switch the circuit breaker on or off"
        }
      }
    }
  },
  "userdoc": {
    "methods": {
      "emergencyStop(bool)": {
        "notice": "Pause the contract.  It stops execution if certain conditions are met and can be useful  when new errors are discovered. "
      }
    }
  }
}